{"abi":[{"type":"constructor","inputs":[],"stateMutability":"nonpayable"},{"type":"function","name":"deregisterYieldStrategy","inputs":[{"name":"baseToken","type":"address","internalType":"address"}],"outputs":[],"stateMutability":"nonpayable"},{"type":"function","name":"getBaseToken","inputs":[{"name":"yieldStrategy","type":"address","internalType":"address"}],"outputs":[{"name":"","type":"address","internalType":"address"}],"stateMutability":"view"},{"type":"function","name":"getYieldStrategy","inputs":[{"name":"baseToken","type":"address","internalType":"address"}],"outputs":[{"name":"","type":"address","internalType":"address"}],"stateMutability":"view"},{"type":"function","name":"owner","inputs":[],"outputs":[{"name":"","type":"address","internalType":"address"}],"stateMutability":"view"},{"type":"function","name":"registerYieldStrategy","inputs":[{"name":"baseToken","type":"address","internalType":"address"},{"name":"yieldStrategy","type":"address","internalType":"address"}],"outputs":[],"stateMutability":"nonpayable"},{"type":"function","name":"renounceOwnership","inputs":[],"outputs":[],"stateMutability":"nonpayable"},{"type":"function","name":"transferOwnership","inputs":[{"name":"newOwner","type":"address","internalType":"address"}],"outputs":[],"stateMutability":"nonpayable"},{"type":"event","name":"OwnershipTransferred","inputs":[{"name":"previousOwner","type":"address","indexed":true,"internalType":"address"},{"name":"newOwner","type":"address","indexed":true,"internalType":"address"}],"anonymous":false},{"type":"error","name":"OwnableInvalidOwner","inputs":[{"name":"owner","type":"address","internalType":"address"}]},{"type":"error","name":"OwnableUnauthorizedAccount","inputs":[{"name":"account","type":"address","internalType":"address"}]}],"bytecode":{"object":"0x608060405234801561000f575f80fd5b50335f73ffffffffffffffffffffffffffffffffffffffff168173ffffffffffffffffffffffffffffffffffffffff1603610081575f6040517f1e4fbdf70000000000000000000000000000000000000000000000000000000081526004016100789190610196565b60405180910390fd5b6100908161009660201b60201c565b506101af565b5f805f9054906101000a900473ffffffffffffffffffffffffffffffffffffffff169050815f806101000a81548173ffffffffffffffffffffffffffffffffffffffff021916908373ffffffffffffffffffffffffffffffffffffffff1602179055508173ffffffffffffffffffffffffffffffffffffffff168173ffffffffffffffffffffffffffffffffffffffff167f8be0079c531659141344cd1fd0a4f28419497f9722a3daafe3b4186f6b6457e060405160405180910390a35050565b5f73ffffffffffffffffffffffffffffffffffffffff82169050919050565b5f61018082610157565b9050919050565b61019081610176565b82525050565b5f6020820190506101a95f830184610187565b92915050565b6104b0806101bc5f395ff3fe608060405234801561000f575f80fd5b506004361061007b575f3560e01c80638996b5ec116100595780638996b5ec146100e95780638da5cb5b146101055780639fb5494414610123578063f2fde38b1461013f5761007b565b80630c10fd0f1461007f578063399fdfa1146100af578063715018a6146100df575b5f80fd5b610099600480360381019061009491906103e9565b61015b565b6040516100a69190610423565b60405180910390f35b6100c960048036038101906100c491906103e9565b610161565b6040516100d69190610423565b60405180910390f35b6100e7610167565b005b61010360048036038101906100fe91906103e9565b61017a565b005b61010d610185565b60405161011a9190610423565b60405180910390f35b61013d6004803603810190610138919061043c565b6101ac565b005b610159600480360381019061015491906103e9565b6101b8565b005b5f919050565b5f919050565b61016f61023c565b6101785f6102c3565b565b61018261023c565b50565b5f805f9054906101000a900473ffffffffffffffffffffffffffffffffffffffff16905090565b6101b461023c565b5050565b6101c061023c565b5f73ffffffffffffffffffffffffffffffffffffffff168173ffffffffffffffffffffffffffffffffffffffff1603610230575f6040517f1e4fbdf70000000000000000000000000000000000000000000000000000000081526004016102279190610423565b60405180910390fd5b610239816102c3565b50565b610244610384565b73ffffffffffffffffffffffffffffffffffffffff16610262610185565b73ffffffffffffffffffffffffffffffffffffffff16146102c157610285610384565b6040517f118cdaa70000000000000000000000000000000000000000000000000000000081526004016102b89190610423565b60405180910390fd5b565b5f805f9054906101000a900473ffffffffffffffffffffffffffffffffffffffff169050815f806101000a81548173ffffffffffffffffffffffffffffffffffffffff021916908373ffffffffffffffffffffffffffffffffffffffff1602179055508173ffffffffffffffffffffffffffffffffffffffff168173ffffffffffffffffffffffffffffffffffffffff167f8be0079c531659141344cd1fd0a4f28419497f9722a3daafe3b4186f6b6457e060405160405180910390a35050565b5f33905090565b5f80fd5b5f73ffffffffffffffffffffffffffffffffffffffff82169050919050565b5f6103b88261038f565b9050919050565b6103c8816103ae565b81146103d2575f80fd5b50565b5f813590506103e3816103bf565b92915050565b5f602082840312156103fe576103fd61038b565b5b5f61040b848285016103d5565b91505092915050565b61041d816103ae565b82525050565b5f6020820190506104365f830184610414565b92915050565b5f80604083850312156104525761045161038b565b5b5f61045f858286016103d5565b9250506020610470858286016103d5565b915050925092905056fea26469706673582212208cd962e3ee670b76882263e8edf207efd30e0a133b3ba5bba18e8cc78196667264736f6c63430008190033","linkReferences":{}},"methodIdentifiers":{"deregisterYieldStrategy(address)":"8996b5ec","getBaseToken(address)":"0c10fd0f","getYieldStrategy(address)":"399fdfa1","owner()":"8da5cb5b","registerYieldStrategy(address,address)":"9fb54944","renounceOwnership()":"715018a6","transferOwnership(address)":"f2fde38b"},"id":21}