{"abi":[{"type":"constructor","inputs":[],"stateMutability":"nonpayable"},{"type":"function","name":"baseTokenToStrategy","inputs":[{"name":"","type":"address","internalType":"address"}],"outputs":[{"name":"","type":"address","internalType":"address"}],"stateMutability":"view"},{"type":"function","name":"deregisterYieldStrategy","inputs":[{"name":"baseToken","type":"address","internalType":"address"}],"outputs":[],"stateMutability":"nonpayable"},{"type":"function","name":"getBaseToken","inputs":[{"name":"yieldStrategy","type":"address","internalType":"address"}],"outputs":[{"name":"","type":"address","internalType":"address"}],"stateMutability":"view"},{"type":"function","name":"getYieldStrategy","inputs":[{"name":"baseToken","type":"address","internalType":"address"}],"outputs":[{"name":"","type":"address","internalType":"address"}],"stateMutability":"view"},{"type":"function","name":"owner","inputs":[],"outputs":[{"name":"","type":"address","internalType":"address"}],"stateMutability":"view"},{"type":"function","name":"registerYieldStrategy","inputs":[{"name":"baseToken","type":"address","internalType":"address"},{"name":"yieldStrategy","type":"address","internalType":"address"}],"outputs":[],"stateMutability":"nonpayable"},{"type":"function","name":"renounceOwnership","inputs":[],"outputs":[],"stateMutability":"nonpayable"},{"type":"function","name":"strategyToBaseToken","inputs":[{"name":"","type":"address","internalType":"address"}],"outputs":[{"name":"","type":"address","internalType":"address"}],"stateMutability":"view"},{"type":"function","name":"transferOwnership","inputs":[{"name":"newOwner","type":"address","internalType":"address"}],"outputs":[],"stateMutability":"nonpayable"},{"type":"event","name":"OwnershipTransferred","inputs":[{"name":"previousOwner","type":"address","indexed":true,"internalType":"address"},{"name":"newOwner","type":"address","indexed":true,"internalType":"address"}],"anonymous":false},{"type":"error","name":"OwnableInvalidOwner","inputs":[{"name":"owner","type":"address","internalType":"address"}]},{"type":"error","name":"OwnableUnauthorizedAccount","inputs":[{"name":"account","type":"address","internalType":"address"}]}],"bytecode":{"object":"0x608060405234801561000f575f80fd5b50335f73ffffffffffffffffffffffffffffffffffffffff168173ffffffffffffffffffffffffffffffffffffffff1603610081575f6040517f1e4fbdf70000000000000000000000000000000000000000000000000000000081526004016100789190610196565b60405180910390fd5b6100908161009660201b60201c565b506101af565b5f805f9054906101000a900473ffffffffffffffffffffffffffffffffffffffff169050815f806101000a81548173ffffffffffffffffffffffffffffffffffffffff021916908373ffffffffffffffffffffffffffffffffffffffff1602179055508173ffffffffffffffffffffffffffffffffffffffff168173ffffffffffffffffffffffffffffffffffffffff167f8be0079c531659141344cd1fd0a4f28419497f9722a3daafe3b4186f6b6457e060405160405180910390a35050565b5f73ffffffffffffffffffffffffffffffffffffffff82169050919050565b5f61018082610157565b9050919050565b61019081610176565b82525050565b5f6020820190506101a95f830184610187565b92915050565b610ca2806101bc5f395ff3fe608060405234801561000f575f80fd5b5060043610610091575f3560e01c80638996b5ec116100645780638996b5ec1461012f5780638da5cb5b1461014b5780639fb5494414610169578063cf39bbb914610185578063f2fde38b146101b557610091565b80630c10fd0f14610095578063399fdfa1146100c55780635fc57059146100f5578063715018a614610125575b5f80fd5b6100af60048036038101906100aa91906109c2565b6101d1565b6040516100bc91906109fc565b60405180910390f35b6100df60048036038101906100da91906109c2565b610236565b6040516100ec91906109fc565b60405180910390f35b61010f600480360381019061010a91906109c2565b61029b565b60405161011c91906109fc565b60405180910390f35b61012d6102cb565b005b610149600480360381019061014491906109c2565b6102de565b005b610153610408565b60405161016091906109fc565b60405180910390f35b610183600480360381019061017e9190610a15565b61042f565b005b61019f600480360381019061019a91906109c2565b610761565b6040516101ac91906109fc565b60405180910390f35b6101cf60048036038101906101ca91906109c2565b610791565b005b5f60025f8373ffffffffffffffffffffffffffffffffffffffff1673ffffffffffffffffffffffffffffffffffffffff1681526020019081526020015f205f9054906101000a900473ffffffffffffffffffffffffffffffffffffffff169050919050565b5f60015f8373ffffffffffffffffffffffffffffffffffffffff1673ffffffffffffffffffffffffffffffffffffffff1681526020019081526020015f205f9054906101000a900473ffffffffffffffffffffffffffffffffffffffff169050919050565b6002602052805f5260405f205f915054906101000a900473ffffffffffffffffffffffffffffffffffffffff1681565b6102d3610815565b6102dc5f61089c565b565b6102e6610815565b5f60015f8373ffffffffffffffffffffffffffffffffffffffff1673ffffffffffffffffffffffffffffffffffffffff1681526020019081526020015f205f9054906101000a900473ffffffffffffffffffffffffffffffffffffffff16905060015f8373ffffffffffffffffffffffffffffffffffffffff1673ffffffffffffffffffffffffffffffffffffffff1681526020019081526020015f205f6101000a81549073ffffffffffffffffffffffffffffffffffffffff021916905560025f8273ffffffffffffffffffffffffffffffffffffffff1673ffffffffffffffffffffffffffffffffffffffff1681526020019081526020015f205f6101000a81549073ffffffffffffffffffffffffffffffffffffffff02191690555050565b5f805f9054906101000a900473ffffffffffffffffffffffffffffffffffffffff16905090565b610437610815565b5f73ffffffffffffffffffffffffffffffffffffffff168273ffffffffffffffffffffffffffffffffffffffff16036104a5576040517f08c379a000000000000000000000000000000000000000000000000000000000815260040161049c90610ad3565b60405180910390fd5b5f73ffffffffffffffffffffffffffffffffffffffff168173ffffffffffffffffffffffffffffffffffffffff1603610513576040517f08c379a000000000000000000000000000000000000000000000000000000000815260040161050a90610b61565b60405180910390fd5b5f73ffffffffffffffffffffffffffffffffffffffff1660015f8473ffffffffffffffffffffffffffffffffffffffff1673ffffffffffffffffffffffffffffffffffffffff1681526020019081526020015f205f9054906101000a900473ffffffffffffffffffffffffffffffffffffffff1673ffffffffffffffffffffffffffffffffffffffff16146105dd576040517f08c379a00000000000000000000000000000000000000000000000000000000081526004016105d490610bc9565b60405180910390fd5b5f813b90505f811115610666578173ffffffffffffffffffffffffffffffffffffffff1663be875e4f5f806040518363ffffffff1660e01b8152600401610625929190610be7565b602060405180830381865afa158015610640573d5f803e3d5ffd5b505050506040513d601f19601f820116820180604052508101906106649190610c41565b505b8160015f8573ffffffffffffffffffffffffffffffffffffffff1673ffffffffffffffffffffffffffffffffffffffff1681526020019081526020015f205f6101000a81548173ffffffffffffffffffffffffffffffffffffffff021916908373ffffffffffffffffffffffffffffffffffffffff1602179055508260025f8473ffffffffffffffffffffffffffffffffffffffff1673ffffffffffffffffffffffffffffffffffffffff1681526020019081526020015f205f6101000a81548173ffffffffffffffffffffffffffffffffffffffff021916908373ffffffffffffffffffffffffffffffffffffffff160217905550505050565b6001602052805f5260405f205f915054906101000a900473ffffffffffffffffffffffffffffffffffffffff1681565b610799610815565b5f73ffffffffffffffffffffffffffffffffffffffff168173ffffffffffffffffffffffffffffffffffffffff1603610809575f6040517f1e4fbdf700000000000000000000000000000000000000000000000000000000815260040161080091906109fc565b60405180910390fd5b6108128161089c565b50565b61081d61095d565b73ffffffffffffffffffffffffffffffffffffffff1661083b610408565b73ffffffffffffffffffffffffffffffffffffffff161461089a5761085e61095d565b6040517f118cdaa700000000000000000000000000000000000000000000000000000000815260040161089191906109fc565b60405180910390fd5b565b5f805f9054906101000a900473ffffffffffffffffffffffffffffffffffffffff169050815f806101000a81548173ffffffffffffffffffffffffffffffffffffffff021916908373ffffffffffffffffffffffffffffffffffffffff1602179055508173ffffffffffffffffffffffffffffffffffffffff168173ffffffffffffffffffffffffffffffffffffffff167f8be0079c531659141344cd1fd0a4f28419497f9722a3daafe3b4186f6b6457e060405160405180910390a35050565b5f33905090565b5f80fd5b5f73ffffffffffffffffffffffffffffffffffffffff82169050919050565b5f61099182610968565b9050919050565b6109a181610987565b81146109ab575f80fd5b50565b5f813590506109bc81610998565b92915050565b5f602082840312156109d7576109d6610964565b5b5f6109e4848285016109ae565b91505092915050565b6109f681610987565b82525050565b5f602082019050610a0f5f8301846109ed565b92915050565b5f8060408385031215610a2b57610a2a610964565b5b5f610a38858286016109ae565b9250506020610a49858286016109ae565b9150509250929050565b5f82825260208201905092915050565b7f43616e6e6f74207265676973746572207a65726f206164647265737320666f725f8201527f2062617365546f6b656e00000000000000000000000000000000000000000000602082015250565b5f610abd602a83610a53565b9150610ac882610a63565b604082019050919050565b5f6020820190508181035f830152610aea81610ab1565b9050919050565b7f43616e6e6f74207265676973746572207a65726f206164647265737320666f725f8201527f207969656c645374726174656779000000000000000000000000000000000000602082015250565b5f610b4b602e83610a53565b9150610b5682610af1565b604082019050919050565b5f6020820190508181035f830152610b7881610b3f565b9050919050565b7f42617365546f6b656e20616c72656164792072656769737465726564000000005f82015250565b5f610bb3601c83610a53565b9150610bbe82610b7f565b602082019050919050565b5f6020820190508181035f830152610be081610ba7565b9050919050565b5f604082019050610bfa5f8301856109ed565b610c0760208301846109ed565b9392505050565b5f819050919050565b610c2081610c0e565b8114610c2a575f80fd5b50565b5f81519050610c3b81610c17565b92915050565b5f60208284031215610c5657610c55610964565b5b5f610c6384828501610c2d565b9150509291505056fea2646970667358221220f0aa9be700cb38d380924ffc04c106bf3805f7eac9654d19163256c3599543a664736f6c63430008190033","linkReferences":{}},"methodIdentifiers":{"baseTokenToStrategy(address)":"cf39bbb9","deregisterYieldStrategy(address)":"8996b5ec","getBaseToken(address)":"0c10fd0f","getYieldStrategy(address)":"399fdfa1","owner()":"8da5cb5b","registerYieldStrategy(address,address)":"9fb54944","renounceOwnership()":"715018a6","strategyToBaseToken(address)":"5fc57059","transferOwnership(address)":"f2fde38b"},"id":22}